:100000001BEF1BF0FFFFFFFF00C01FF001C01EF041
:1000100002C01DF003C01CF004C01BF005C01AF0A4
:1000200006C019F008C018F009C017F00AC016F091
:100030000BC015F0E1CF28F0E2CF29F0E9CF26F090
:10004000EACF27F0F3CF24F0F4CF25F0F5CF23F05B
:10005000F8CF20F0F7CF21F0F6CF22F0A1AA03D0FD
:10006000B9EC0FF0A19A9EA007D09E900B0ECF6E18
:10007000D90ECE6EB2EC10F023C0F5FF20C0F8FF11
:1000800021C0F7FF22C0F6FF24C0F3FF25C0F4FF14
:100090001FC000F01EC001F01DC002F01CC003F024
:1000A0001BC004F01AC005F019C006F018C008F013
:1000B00017C009F016C00AF015C00BF026C0E9FF02
:1000C00027C0EAFF28C0E1FF29C0E2FF11000B6A48
:1000D0000A6A096A00500402F4CF09F0F3CF08F06D
:1000E00001500502F4CF0BF0F3CF0AF000500502E7
:1000F000F3500926F4500A22E86A0B220150040248
:10010000F3500926F4500A22E86A0B2208C000F0D6
:1001100009C001F00AC002F00BC003F012001E0E6D
:10012000716E100E5D6E040E5E6E5DC0E1FF5EC00E
:10013000E2FFE69E5DC0E1FF5EC0E2FFE69C040ECA
:100140005D24E16E000E5E20E26EE68C180E00016A
:10015000706F040E716F70C0E1FF71C0E2FFE69E28
:1001600070C0E1FF71C0E2FFE69C040E7025E16EF5
:10017000000E7121E26EE68C020E5D24E16E000E2F
:100180005E20E26E59C0E6FF5AC0E6FF010E5D2414
:10019000E16E000E5E20E26E400EE66E5DC0E9FF8D
:1001A0005EC0EAFFEECF00F05DC0E1FF5EC0E2FF9F
:1001B000400E0014E66E5DC0E9FF5EC0EAFFEECFC0
:1001C00000F05DC0E1FF5EC0E2FF880E0010E66E49
:1001D0005DC04BF05EC04CF0040E5D18006E00C0B8
:1001E0005DF0120004012251010A11E120C401F066
:1001F0001F0E01160150000A0AE10001788F040168
:100200002151030A03E1010E4F6E01D04F6A2251C2
:10021000000AD8A48DD020C401F01F0E0116015091
:10022000020AD8A485D024C401F00F0E0116015093
:10023000000AD8B47DD00001788F040124BF16D005
:1002400024C403F00F0E031603C000F0000E016E6D
:100250000036009001365B0E0024E96E000E01208E
:10026000EA6EEECF04F0EECF05F015D024C403F013
:100270000F0E031603C000F0000E016E0036009052
:1002800001366E0E0024E96E000E0120EA6EEECFFC
:1002900004F0EECF05F02151030A07E104C0E1FFAD
:1002A00005C0E2FF840EE66E43D024C400F00F0EBA
:1002B0000016700E026E0F0E036E00500226D8B0AC
:1002C000032A02C0E9FF03C0EAFFFE0EEE14006E2F
:1002D000EECF01F0FF0E011602C0E1FF03C0E2FF06
:1002E00000C0E6FF01C0E6FF24AF11D004C0E1FF6B
:1002F00005C0E2FFE66A040E0418006E00C004F0B8
:1003000004C0E1FF05C0E2FF400EE66E11D004C05C
:10031000E1FF05C0E2FF880EE66E040E0418006ED1
:1003200000C004F004C0E1FF05C0E2FFC80EE66EA5
:1003300012000401286B296B48D00001788F04015A
:1003400028814F50010AD8B4288354D00001788FF7
:1003500051D00001788F040124BF16D024C403F0CB
:100360000F0E031603C000F0000E016E0036009061
:1003700001365B0E0024E96E000E0120EA6EEECF1E
:1003800004F0EECF05F015D024C403F00F0E0316D1
:1003900003C000F0000E016E0036009001366E0EB4
:1003A0000024E96E000E0120EA6EEECF04F0EECFDD
:1003B00005F004C0E9FF05C0EAFFEECF01F001A49B
:1003C00003D00401010E286F15D020C401F01F0EC8
:1003D00001160150000AB1E020C401F01F0E011601
:1003E0000150010AB3E020C401F01F0E01160150B4
:1003F000020AAFE0000178AF07D0280E756F040E37
:10040000766F7881020E796F120004012051800A04
:10041000D8A478D0C00E0001786F69D00001EC0E2E
:10042000006E370E016E000E026E00C075F001C046
:1004300076F002C077F0120E796F000E7A6F62D0FC
:100440000001030E006E000E016E22C404F0000EC7
:10045000056E3DDE720E0024E96E000E0120EA6E8C
:10046000EECF75F0EECF76F0EECF77F0020E752579
:10047000F66E000E7621F76E000E7721F86E0900F9
:10048000F5CF00F00900F5CF01F000C079F001C010
:100490007AF038D00401225100017D5D23E3030E80
:1004A000006E000E016E22C404F0000E056E0FDE19
:1004B000650E0024E96E000E0120EA6EEECF75F0A5
:1004C000EECF76F0EECF77F075C0F6FF76C0F7FF8F
:1004D00077C0F8FF0900F5CF00F000C079F0000EFA
:1004E0007A6F01D0786B0ED00001786B0BD00401CD
:1004F0002351010A93E02351020AA2E02351030A87
:10050000C9E0F2D71200000E00017A5D02E1080E88
:10051000795D10E279C003F07AC004F05F50000A00
:1005200003E1010E5F6E05D05F50010A02E1020E89
:100530005F6E04D0080E036E000E046E6EC0E1FF05
:100540006FC0E2FFE6926EC0E1FF6FC0E2FFE6908F
:100550006EC0E9FF6FC0EAFFEECF00F06EC0E1FFB2
:100560006FC0E2FF04500010E66E010E6E25E16ED2
:10057000000E6F21E26E03C0E6FF0350795D006E4E
:1005800004507A59016E00C079F001C07AF0280E4B
:10059000636F040E646F78B12FD0035004102BE00A
:1005A00075C0F6FF76C0F7FF77C0F8FF0900F5CFFA
:1005B00000F063C0E1FF64C0E2FF00C0E6FF634BF0
:1005C000642B010E7525006E000E7621016E000E63
:1005D0007721026E00C075F001C076F002C077F09E
:1005E000010E035C006E000E0458016E00C003F0A3
:1005F00001C004F0D2D724D00350041021E075C00C
:10060000E9FF76C0EAFF63C0E1FF64C0E2FFEECF1E
:10061000E6FF634B642B010E7525006E000E7621FC
:10062000016E00C075F001C076F0010E035C006E33
:10063000000E0458016E00C003F001C004F0DCD7C6
:1006400012000001788F716A816B22C483F083519C
:10065000000A03E1100E826F03D0200E826F5FDD6F
:10066000120020C401F01F0E01160150010A01E022
:1006700094D004012451000A01E08FD02151060AD0
:1006800042E137D000018351010A17E1360E006EB6
:10069000370E016E000E026E120E0026000E0122B1
:1006A000022200C075F001C076F002C077F0090E9A
:1006B000796F000E7A6FC00E786F25D000018351DC
:1006C000010A12E1AB0E006E370E016E000E026ED3
:1006D00000C075F001C076F002C077F0210E796F8E
:1006E000000E7A6FC00E786F0ED00001800E786F0A
:1006F0000AD004012351210AC5E02351220ADEE079
:100700002351230AF2E020C401F0600E0116050E09
:10071000006E005004E00132019EFF0FFBD7015034
:10072000010A01E03AD026D038D037D04A0E000175
:10073000756F000E766F010E796F000E7A6FC10E25
:10074000786F2BD00001800E786F23C44AF025D03B
:1007500000014E0E756F000E766F010E796F000E60
:100760007A6F810E786F19D00001800E786F22C4E5
:100770004EF013D004012151010AD6E02151090A9B
:10078000D4E02151020AD2E021510A0ADBE02151D2
:10079000030ADEE021510B0AE7E01200360E0001E9
:1007A000726F370E736F000E746F040E656F380E24
:1007B000666F000E676FFE0E686F370E696F000E72
:1007C0006A6F000E6B6F370E6C6F000E6D6F12004C
:1007D000160E6F6E9F0E6B6E3B0E696E120020C47C
:1007E00001F0600E0116050E006E005004E00132AB
:1007F000019EFF0FFBD70150000A01E05DD039D008
:100800000001788F080E826F57D0FFDD55D019DFB9
:1008100053D00001830E756F000E766F7881010E44
:10082000796F788F49D085DD47D0DCDC45D0810EEB
:10083000006E000E016E24510026D8B0012A00C0BF
:1008400075F001C076F000017881010E796F788F24
:1008500033D00001788F810EE16E000EE26E04014C
:100860002451E126D8B0E22A22C4E6FF25D024D0C4
:1008700023D004012151050AC3E02151060AC5E035
:100880002151090AC4E02151080AC3E02151000A9C
:10089000CAE02151010AC9E02151030AC6E02151F1
:1008A0000A0AC5E021510B0AD4E02151070ADFE012
:1008B00021510C0ADDE0DCD71200010E00017B257E
:1008C000E96E000E7C21EA6EEECF00F000C002F06F
:1008D000000E545C02E10250535C03E253C002F08C
:1008E0000AD00250535C006E000E5458016E00C0D6
:1008F00053F001C054F0036A0250035C1CE2280E5E
:10090000E96E040EEA6E0350E926D8B0EA2AEECF6B
:1009100000F050C0E1FF51C0E2FF00C0E6FF010E51
:100920005024006E000E5120016E00C050F001C036
:1009300051F0032AE1D7000E006E5450005C02E132
:100940005350000828E2010E7E25E16E000E7F2143
:10095000E26E080EE66E020E7E25E16E000E7F212D
:10096000E26E280EE66E040EE66E7BC0E9FF7CC0E8
:10097000EAFFEECF00F000BC07D07EC0E1FF7FC0F1
:10098000E2FFC80EE66E06D07EC0E1FF7FC0E2FF48
:10099000880EE66E19D0010E7E25E16E000E7F21D5
:1009A000E26E080EE66E020E7E25E16E000E7F21DD
:1009B000E26E200EE66E040EE66E7EC0E1FF7FC0A2
:1009C000E2FF840EE66E529E12000001606B6EC064
:1009D000E1FF6FC0E2FFE66A040E6E19E16E6FC0C0
:1009E000E2FF000EE21AE66A52BE529E12006D98B5
:1009F000000178BF49D052AE28D0020E606F010EC0
:100A00006E25E16E000E6F21E26EE66A6EC0E1FFB8
:100A10006FC0E2FFC80EE66E010E7E25E16E000E8D
:100A20007F21E26E080EE66E020E7E25E16E000E5C
:100A30007F21E26E280EE66E040EE66E7EC0E1FFB8
:100A40007FC0E2FFC80EE66E1ED0010E7E25E16E6D
:100A5000000E7F21E26E080EE66E020E7E25E16E2C
:100A6000000E7F21E26E200EE66E040EE66E7EC062
:100A7000E1FF7FC0E2FF8C0EE66E6EC0E1FF6FC04B
:100A8000E2FF840EE66E82D052BE80D0040120AF19
:100A900055D000017A510401275D04E1000179512C
:100AA0000401265D04E226C479F027C47AF02BDD28
:100AB000010E606F010E7E25E16E000E7F21E26E59
:100AC000080EE66E020E7E25E16E000E7F21E26EBC
:100AD000200EE66E040EE66E7EC0E1FF7FC0E2FFF0
:100AE000800EE66E806B010E7B25E16E000E7C2190
:100AF000E26E080EE66E020E7B25E16E000E7C2192
:100B0000E26E200EE66E040EE66E7BC0E1FF7CC056
:100B1000E2FF840EE66E010E806F020E6E25E16E1E
:100B2000000E6F21E26E280EE66E040EE66E6EC0B9
:100B3000E1FF6FC0E2FFC80EE66E28D00001020E92
:100B4000606F010E6E25E16E000E6F21E26EE66AA7
:100B50006EC0E1FF6FC0E2FFC80EE66E010E7E259B
:100B6000E16E000E7F21E26E080EE66E020E7E251B
:100B7000E16E000E7F21E26E280EE66E040EE66E38
:100B80007EC0E1FF7FC0E2FFC80EE66E12004D524C
:100B900001E067DD12006EC0E9FF6FC0EAFFEECF33
:100BA00000F000AE05D06EC0E1FF6FC0E2FFE66A64
:100BB0005F6A0001606B796B7A6B786B10DEE7DF40
:100BC00016DF1200040E00016E19006E00C06EF0F8
:100BD0008251080A0AE122C46EFF6E50000803E247
:100BE000100E826F02D0040E826F6051010A3AE14A
:100BF000020E6E25E16E000E6F21E26E280EE66E8B
:100C0000040EE66E80DC5F50020A07E16EC0E1FF71
:100C10006FC0E2FF840EE66E24D0040E6E19006EE3
:100C200000C06EF06EC0E9FF6FC0EAFFEECF00F0CB
:100C300000BC0CD0040E6E19006E00C06EF06EC0C9
:100C4000E1FF6FC0E2FFC80EE66E0BD0040E6E1916
:100C5000006E00C06EF06EC0E1FF6FC0E2FF880E54
:100C6000E66E01D0B2DE12006D92699468A403D0E2
:100C7000FB0E6816FBD71200A19A12006984EF0ED2
:100C800068166D82120070A019D07BC0E9FF7CC08D
:100C9000EAFFEECF01F00150800A0FE16EC0E9FFDC
:100CA0006FC0EAFFEECF01F00150840A06E17BC07D
:100CB000E1FF7CC0E2FF8C0EE66E7090DF0E6816DE
:100CC000120000016051020A02E1F7DD1ED07DDE54
:100CD0008051000A19E1010E7E25E16E000E7F2190
:100CE000E26E080EE66E020E7E25E16E000E7F219A
:100CF000E26E200EE66E040EE66E7EC0E1FF7FC05F
:100D0000E2FF8C0EE66E01D0806B120047DD4B6A6D
:100D10004C6A846B856B6A6A686A5ADD6D8C6E6A90
:100D2000716A6D9CC66BC76B000EC75D02E1080E51
:100D3000C65D17E2C6C000F0C7C001F000360090E3
:100D40000136003600900136000E0024E16E040EDC
:100D50000120E26EE66AE66AE66AE66AC64BC72BDF
:100D6000E3D7160E706E68A603D0F70E6816FBD791
:100D7000786B526A536A546A6D98080E6E6F040E4F
:100D80006F6F836B826B120001012451000A12E025
:100D900023C100F0000E016E0036009001366E0E89
:100DA0000024E96E000E0120EA6EEECF04F0EECFD3
:100DB00005F011D023C100F0000E016E0036009046
:100DC00001365B0E0024E96E000E0120EA6EEECFC4
:100DD00004F0EECF05F0020E0424E16E000E0520B3
:100DE000E26E25C1E6FF26C1E6FF010E0424E16E96
:100DF000000E0520E26E27C1E6FF04C0E9FF05C032
:100E0000EAFFEECF00F004C0E1FF05C0E2FF400EB4
:100E10000014E66E04C0E9FF05C0EAFFEECF00F063
:100E200004C0E1FF05C0E2FF880E0010E66E245109
:100E3000000A1BE023C100F0000E016E0036009096
:100E400001366E0E0024026E000E0120036E02C0F9
:100E5000E9FF03C0EAFF040EEE18006E02C0E1FFD6
:100E600003C0E2FF00C0E6FF1AD023C100F0000E6D
:100E7000016E0036009001365B0E0024026E000EFB
:100E80000120036E02C0E9FF03C0EAFF040EEE1862
:100E9000006E02C0E1FF03C0E2FF00C0E6FF04C035
:100EA00000F005C001F01200D08EA28AA08AF28E56
:100EB0001200000E0101241902E1000E231902E1C3
:100EC000016A0AD023C1E9FF24C1EAFFEECF00F096
:100ED000000E00BE010E016E01C000F01200010103
:100EE000266B276B286B020E2325F66E000E24213D
:100EF000F76E000E2521F86E0900F5CF05F0030E00
:100F00002325F66E000E2421F76E000E2521F86EC3
:100F10000900F5CF00F000C003F0000E046E03C01E
:100F200001F0006A05500024066E000E0120076ED5
:100F300023C108F024C109F025C10AF0010E0824DC
:100F4000F66E000E0920F76E000E0A20F86E0900FA
:100F5000F5CF01F00150020A1BE1060E0824F66EDF
:100F6000000E0920F76E000E0A20F86E0900F5CF7A
:100F700001F00150265D0CE2060E0824F66E000E0C
:100F80000920F76E000E0A20F86E0900F5CF26F151
:100F9000010E0824F66E000E0920F76E000E0A20DE
:100FA000F86E0900F5CF01F00150040A1BE1080EAC
:100FB0000824F66E000E0920F76E000E0A20F86E67
:100FC0000900F5CF01F00150265D0CE2080E08245F
:100FD000F66E000E0920F76E000E0A20F86E09006A
:100FE000F5CF26F108C0F6FF09C0F7FF0AC0F8FFE9
:100FF0000900F5CF00F000502725016E000E2821D2
:10100000026E01C027F102C028F10750025C02E124
:101010000650015C01E30FD008C0F6FF09C0F7FFDE
:101020000AC0F8FF0900F5CF00F000500826000EB6
:1010300009220A2283D726C100F012000001825142
:10104000000A0BE16D6A696AE8EC03F06DB602D044
:101050006D86FCD70001010E826F8251010A08E102
:101060006DBA06D0686A696A69806988020E826F03
:1010700068A405D069A403D0FB0E6816F5DD6DA247
:1010800002D0FADDD8D068A018D069A016D03EDE14
:10109000040E826F200E0401026F040E036F080E0F
:1010A000016F000E0015006E00C000F48C0E0011E0
:1010B000006E00C000F4FE0E681668A805D069A88E
:1010C00003D0DCDDEF0E681668AC04D069AC02D04A
:1010D000BF0E681668AA03D069AA01D0D4DD68A241
:1010E00002D069B26A6A040E0001825D02E2C4DDC8
:1010F000A2D069A69FD00101246B040E245DD8B054
:1011000099D068A693D06CCFC8F0F70E6816780E09
:101110000001C815016E0150000AD8A486D0FD0E4A
:10112000C815016E026AFF0E0216000E021802E1D7
:10113000000E01186CE17E0EC815016E01C003F0AF
:101140000332039E03C000F0000E016E00360090D3
:101150000136003600900136000E0024026E040EA7
:101160000120036E02C07BF003C07CF002C07EF061
:1011700003C07FF0040E7E19006E00C07EF002C036
:10118000E9FF03C0EAFFEECF00F000C001F03C0E23
:1011900001160132019E0132019E01500D0A35E116
:1011A000020E7B25E96E000E7C21EA6EEECF01F087
:1011B000EECF02F00250040A02E1280E011823E1EA
:1011C000020E7B25E16E000E7C21E26E200EE66EA3
:1011D000040EE66E0101236B080E235D14E2200E5F
:1011E000E16E040EE26E2351E126D8B0E22A280E09
:1011F000E96E040EEA6E2351E926D8B0EA2AEECF52
:10120000E6FF232BE9D7C7DC01D05BDD0DD0FD0E57
:10121000C815016E026AFF0E0216000E021802E1E6
:10122000040E011801E1CEDC00D001D003D0010191
:10123000242B63D721DD1200EC0E006E370E016EF9
:10124000000E026E0E0E0024F66E000E0120F76EE8
:10125000000E0220F86E0900F5CF03F003C004F081
:101260000F0E0024F66E000E0120F76E000E022015
:10127000F86E0900F5CF01F00150035C12E2EC0EAC
:10128000006E370E016E000E026E0F0E0024F66E19
:10129000000E0120F76E000E0220F86E0900F5CF57
:1012A00004F0EC0E006E370E016E000E026E100E92
:1012B0000024F66E000E0120F76E000E0220F86E7C
:1012C0000900F5CF01F00150045C12E2EC0E006E53
:1012D000370E016E000E026E100E0024F66E000E28
:1012E0000120F76E000E0220F86E0900F5CF04F021
:1012F00004C000F012006D6A696A0001826B12007E
:101300000101226B200E0001825D03E36DB201D06A
:1013100002D0006A2FD04BC023F14CC024F1C9DDAC
:10132000005227E14BC020F14CC021F1000E4C18B7
:1013300002E1000E4B180BE00101010E2025E96EC1
:10134000000E2121EA6EEECF00F000C022F1010173
:101350001FC123F1246B1CC125F11DC126F11EC143
:1013600027F112DD00C04BF001C04CF022C100F0AB
:1013700001D0006A12001EC104F01FC105F01CC19B
:1013800002F01DC103F020C100F021C101F0010EE7
:101390000101205F000E215B005001100FE004C02E
:1013A000E9FF05C0EAFF02C0E1FF03C0E2FFEECFA4
:1013B000E6FF024A032A044A052AE5D71CC100F0C9
:1013C0001DC101F0120000018251000A0BE16D6A9B
:1013D000696AE8EC03F068DD6DB602D06D86FCD773
:1013E000010E826F12001CC102F01DC103F01FC16B
:1013F00000F020C101F0010E01011F5F000E205B13
:101400000050011009E002C0E1FF03C0E2FF1EC16D
:10141000E6FF024A032AEBD71CC100F01DC101F010
:1014200012000ADF00C01CF1360E0101236F370ED7
:10143000246F000E256F53DD00C01DF11C51005CB0
:1014400003E21CC100F002D01DC100F01200200E0A
:101450000001825D03E36DB201D002D0006A49D081
:1014600084C023F185C024F124DD005241E11FC175
:1014700023F1010E246F1CC125F11DC126F11EC1EF
:1014800027F182DC00C084F001C085F00001C96B47
:10149000CA6BCB6BCC6B84C023F185C024F109DD12
:1014A00000520FE0010E016E0150000A01E1C6DD9D
:1014B0000001C951CA11CB11CC1102E0006A19D048
:1014C000EAD7000184C020F185C021F1000E851902
:1014D00002E1000E84190AE0010E01012025E96EE7
:1014E000000E2121EA6EEECF00F003D0006A01D099
:1014F000006A1200000EF2BE010E026EA6A201D01A
:10150000FDD711C1A9FF12C1A8FFA69EA69CA68463
:10151000F29E550EA76EAA0EA76EA68202B002D04A
:10152000F29E01D0F28EA694A6A201D0FDD7016A48
:10153000A6B6012A0150000A010ED8A4000E006EC2
:10154000120059C01CF15AC01DF1400E01011E6F5E
:10155000010E1F6FD5DE120015C101F016C102F099
:10156000010E0101155F000E165B000E021802E16C
:10157000000E01181FE011C1E9FF12C1EAFF13C1FB
:10158000D9FF14C1DAFFEE50DE180FE011C1E9FFF8
:1015900012C1EAFF13C1D9FF14C1DAFFDE50EE5CBD
:1015A000006E016A000E015A07D0114B122B134B2B
:1015B000142BD2D7006A016A120033DF00C07DF01D
:1015C000010E4D6E11C159F012C15AF013C161F0F4
:1015D00014C162F086EC06F0010E016E0150010AA2
:1015E00001E1F1DE1200170E01011C6F010E1D6FEB
:1015F00011C11EF112C11FF1050E206F000E216FE7
:10160000BADE819E818C819A81B601D0FDD781B6E8
:1016100003D0818E006AC6D09398F29E040E166F96
:10162000800E1619006E800E000A005C43E3156BF5
:10163000800E1519006E800E080A005C39E2170E44
:10164000E96E010EEA6E1651E926000E16BFFF0E76
:10165000EA22EECF01F001AE02D0818801D081985C
:10166000818A100E0D6E0D2EFED70000819A100E8D
:101670000D6E0D2EFED70000170E036E010E046EC8
:1016800016510326000E16BFFF0E042203C0E9FF09
:1016900004C0EAFFEECF02F002C000F00036009076
:1016A00003C0E1FF04C0E2FF00C0E6FF152BC0D776
:1016B0001607B6D7F28E170E1C6F010E1D6F1E6B2C
:1016C000050E1F6F000E206F8EDE9388818E819C29
:1016D00081A601D0FDD7F29E040E166F800E16195A
:1016E000006E800E000A005C4BE3156B800E15192E
:1016F000006E800E080A005C41E2818A100E0D6EB9
:101700000D2EFED70000170E036E010E046E16514B
:101710000326000E16BFFF0E042203C0E9FF04C01B
:10172000EAFFEECF02F002C000F00036009003C0E6
:10173000E1FF04C0E2FF00C0E6FF81A817D0170E4A
:10174000016E010E026E16510126000E16BFFF0E2D
:10175000022201C0E9FF02C0EAFF010EEE10006E96
:1017600001C0E1FF02C0E2FF00C0E6FF819A100E57
:101770000D6E0D2EFED70000152BB8D71607AED76D
:10178000F28E818E818C13C11CF114C11DF1170ED4
:101790001E6F010E1F6F050E206F000E216FEBDD17
:1017A000010E006E1200A7DD120011C11CF112C162
:1017B0001DF113C11EF1010E01011F6F48DE120061
:1017C00038D0010112B102D0839001D083804AD079
:1017D000010112B102D0829401D0828443D0010170
:1017E00012B102D0829201D082823CD0010112B1AA
:1017F00002D0829001D0828035D0010112B102D096
:10180000849401D084842ED0010112B102D084923C
:1018100001D0848227D0010112B102D0849001D07E
:10182000848020D0010112B102D0809A01D0808A38
:1018300019D001011151010AC4E01151020AC8E096
:101840001151030ACCE01151040AD0E01151050AEC
:10185000D4E01151060AD8E01151070ADCE0115119
:10186000080AE0E01200A6A201D0FDD711C1A9FF2D
:10187000A69EA69CA680A8CF00F0120001010251EE
:10188000010F116F126B9CDF030E026E02C100F09C
:10189000000E016E025005E0003600900136FF0F89
:1018A000FAD7860E0026000E01220101035303E041
:1018B000020E046F01D0046B00C0E1FF01C0E2FF23
:1018C00004C1E6FF12003DDE1200000E0101116F9F
:1018D000050E126F400E136F050E146F6EDE1200B0
:1018E0000101036B046B056B066B839E0000000017
:1018F000000000000000838E046A0251045C15E2BF
:101900000337039104370537063783AA0381839C85
:1019100000000000000000000000838C00000000B8
:10192000000000000000042AE8D703C100F004C151
:1019300001F005C102F006C103F012000C0E010116
:101940001C6F010E1D6F1E6B050E1F6F000E206FAA
:101950004ADD02C107F103C108F1096B0A6B0B6B89
:10196000045105110DE0090E1C6F010E1D6F04C11D
:101970001EF105C11FF1030E206F000E216FFBDC6D
:10198000070E116F010E126F0C0E136F010E146F04
:101990002ADE005203E1010E006E18D0070E116F0F
:1019A000010E126F0C0E136F010E146F050E156FE2
:1019B000000E166FD1DD0050011003E10101066B2E
:1019C00003D00101020E066F06C100F012000101F2
:1019D000026B036A080E035C26E2030E026E03C06C
:1019E00000F0000E016E025005E000360090013656
:1019F000FF0FFAD7860E0024E96E000E0120EA6E72
:101A0000EECF01F00150020A0CE103C001F0010E1B
:101A1000006E015004E000360090FF0FFBD700502D
:101A20000213032AD7D702C100F01200400E0101B1
:101A3000116F050E126F400E136FB7DE1200838216
:101A4000030E0B6E8A0E0C6E550E0D6E0D2EFED70C
:101A50000C2EFCD70B2EFAD7000000008392120048
:101A60009D9001010251010F116F010E126FA8DE4E
:101A7000030E026E02C100F0000E016E025005E07E
:101A8000003600900136FF0FFAD7860E0024E16E73
:101A9000000E0120E26E010EE66E030E026E02C120
:101AA00000F0000E016E025005E000360090013695
:101AB000FF0FFAD7860E0026000E0122050E002425
:101AC000E16E000E0120E26EE66A030E026E02C1B4
:101AD00000F0000E016E025005E000360090013665
:101AE000FF0FFAD7860E0026000E0122060E0024F4
:101AF000E16E000E0120E26EE66AE66A9D80120049
:101B000002C111F103C112F1F5DC00520AE002C179
:101B100011F1A9DE00500101031903E1010E006E6D
:101B200001D0006A1200086A096A100E0C6E0134B6
:101B3000083609360450085E0550D8A0053C095EF9
:101B4000D8B007D0045008260550D8B0053C092667
:101B5000D890003601360C2EEAD71200FF0E010194
:101B6000066FFF0E076F04C100F005C101F0010E02
:101B7000045F000E055B005001102FE002C1E9FF79
:101B800003C1EAFFEECF03F003C001F0006A00508A
:101B9000061B0150071B024B032B066A080E065C4E
:101BA0001BE207AF0CD006C104F007C105F00436F4
:101BB00004900536210E041A100E051A07D006C12E
:101BC00004F007C105F004360490053604C006F1A0
:101BD00005C007F1062AE2D7C6D706C100F01200F9
:101BE000E2DD1200060E01011C6F010E1D6F1E6B5F
:101BF000050E1F6F000E206FF3EC09F09388819E95
:101C0000819C819A070E0C6E7D0E0D6E0D2EFED7F7
:101C10000C2EFCD781B604D0818E818C006A68D0EE
:101C2000F29E040E056F800E0519006E800E000AEC
:101C3000005C4BE3046B800E0419006E800E080AF2
:101C4000005C41E2818A100E0D6E0D2EFED7000061
:101C5000060E036E010E046E05510326000E05BF2D
:101C6000FF0E042203C0E9FF04C0EAFFEECF02F03A
:101C700002C000F00036009003C0E1FF04C0E2FFA4
:101C800000C0E6FF81A817D0060E016E010E026E9D
:101C900005510126000E05BFFF0E022201C0E9FF1B
:101CA00002C0EAFF010EEE10006E01C0E1FF02C0AB
:101CB000E2FF00C0E6FF819A100E0D6E0D2EFED7DA
:101CC0000000042BB8D70507AED7F28E818E818C29
:101CD00002C11CF103C11DF1060E1E6F010E1F6F24
:101CE000050E206F000E216FBBEC09F0010E006E97
:101CF00012000101026B036A080E035C1CE2030E72
:101D0000026E03C000F0000E016E025005E00036C6
:101D100000900136FF0FFAD7860E0026000E012232
:101D2000010E0024E96E000E0120EA6EEE52D8A4E6
:101D3000022B032AE1D702C100F0120002C111F107
:101D4000FF0E01010315126F7AEC0AF0005236E023
:101D500001010251010F116F04C100F0016AFF0E71
:101D60000014126F7AEC0AF0005228E002C111F15F
:101D70007ADDFF0E01010315026E04C103F0000EAF
:101D80000316000E031802E10250001817E1025179
:101D9000010F116F68DD04C101F0026AFF0E01142A
:101DA000036E02C004F0000E0416000E041802E1D7
:101DB0000350001803E1010E006E01D0006A12000A
:101DC00018D0010E006E2FD0030E006E2CD0070E1F
:101DD000006E29D00F0E006E26D01F0E006E23D08D
:101DE0003F0E006E20D07F0E006E1DD0FF0E006EE5
:101DF0001AD001010251010AE4E00251020AE4E0B2
:101E00000251030AE4E00251040AE4E00251050A27
:101E1000E4E00251060AE4E00251070AE4E002515C
:101E2000080AE4E0006A12000101116B1CDD00C029
:101E3000CFF00050FF0A02E0CFC048F00001CE6BA7
:101E4000CD6B080ECD5D5FE2CE51010F0101116F28
:101E50000ADD00C0CFF00001CE51030F0101116F68
:101E600002DD00C001F0000E026E01C0D3F00001DF
:101E7000D26BCE51020F0101116FF5DC0050000151
:101E8000D211D06FD3C0D1F0000ED113CF51FF0AC1
:101E900001E137D0030E026ECDC000F0000E016EDE
:101EA000025005E0003600900136FF0FFAD7860E8B
:101EB0000026000E0122010E0024E16E000E01201A
:101EC000E26ECFC0E6FF030E026ECDC000F0000E42
:101ED000016E025005E0003600900136FF0FFAD780
:101EE0000001860E0026000E0122030E0024E16E82
:101EF000000E0120E26ED0C0E6FFD1C0E6FF030E67
:101F0000CE27CD2B9ED7F5DE00C02FF01200959086
:101F1000949494929490969496929690929A839098
:101F2000829482928290849484928490809A860E85
:101F300001011C6F000E1D6F1E6B400E1F6F000E07
:101F4000206FF3EC09F012000F0EC112070EB4124D
:101F5000959883989592839295841200CDC034F021
:101F6000000E356E1200959E959C958A838E839CFB
:101F7000120000018251010A07E16DBA05D0686ABA
:101F800069806988020E826F68A406D069A404D0B3
:101F9000FB0E681634EC06F06DA203D03CEC06F0A4
:101FA000E0D068A019D069A017D086EC06F0040E26
:101FB000826F200E0401026F040E036F080E016F82
:101FC000000E0015006E00C000F48C0E0011006EB3
:101FD00000C000F4FE0E681668A806D069A804D0F8
:101FE0003EEC06F0EF0E681668AC04D069AC02D087
:101FF000BF0E681668AA04D069AA02D043EC06F0A6
:1020000068A202D069B26A6A040E0001825D03E22E
:102010003CEC06F0A6D069A6A2D001012A6B040E02
:102020002A5DD8B09CD068A696D06CCFC8F0F70EC9
:102030006816780E0001C815016E0150000AD8A478
:1020400089D0FD0EC815016E026AFF0E0216000E41
:10205000021802E1000E01186EE17E0EC815016E35
:1020600001C003F00332039E03C000F0000E016EB6
:10207000003600900136003600900136000E002434
:10208000026E040E0120036E02C07BF003C07CF0E0
:1020900002C07EF003C07FF0040E7E19006E00C007
:1020A0007EF002C0E9FF03C0EAFFEECF00F000C0FF
:1020B00001F03C0E01160132019E0132019E0150D9
:1020C0000D0A36E1020E7B25E96E000E7C21EA6ED8
:1020D000EECF01F0EECF02F00250040A02E1280E2A
:1020E000011823E1020E7B25E16E000E7C21E26ED9
:1020F000200EE66E040EE66E0101296B080E295DC6
:1021000014E2200EE16E040EE26E2951E126D8B0F1
:10211000E22A280EE96E040EEA6E2951E926D8B0AB
:10212000EA2AEECFE6FF292BE9D7CBEC05F002D067
:1021300061EC06F00ED0FD0EC815016E026AFF0EAE
:102140000216000E021802E1040E011802E1E2EC90
:1021500005F000D001D003D001012A2B60D73CEC60
:1021600006F01200066A080E065CD8B09CD0030E7A
:10217000026E06C000F0000E016E025005E000364F
:1021800000900136FF0FFAD7860E0024E96E000E8C
:102190000120EA6EEECF01F00150010AD8A481D0EF
:1021A000030E026E06C000F0000E016E025005E044
:1021B000003600900136FF0FFAD7860E0026000E7B
:1021C0000122050E0024E96E000E0120EA6EEE5099
:1021D000000A67E1030E026E06C000F0000E016EF9
:1021E000025005E0003600900136FF0FFAD7860E48
:1021F0000026000E0122060E0024026E000E0120B1
:10220000036E02C0E9FF03C0EAFFEECF04F0EECF99
:1022100005F0010E0424006E000E0520016E02C0C0
:10222000E1FF03C0E2FF00C0E6FF01C0E6FF030ECE
:10223000026E06C000F0000E016E025005E000368E
:1022400000900136FF0FFAD7860E0026000E0122FD
:10225000030E0024D96E000E0120DA6EDECF01F0ED
:10226000DECF02F00250055C02E10150045C19E38C
:10227000030E026E06C000F0000E016E025005E073
:10228000003600900136FF0FFAD7860E0026000EAA
:102290000122050E0024E16E000E0120E26E010E07
:1022A000E66E062A60D712000900F5CFE6FF0006A9
:1022B000FBE10106F9E11200939E818E939C818CD3
:1022C000939A819A939881989386020E0B6E450E8D
:1022D0000C6EA90E0D6E0D2EFED70C2EFCD70B2EFC
:1022E000FAD7000000001200310ECD6E9E900B0E4A
:1022F000CF6ED90ECE6E9D801200036A080E035C6D
:102300002EE2030E026E03C000F0000E016E0250BA
:1023100005E0003600900136FF0FFAD7860E002444
:10232000E96E000E0120EA6EEECF01F00150020AC4
:1023300014E1030E026E03C000F0000E016E0250A5
:1023400005E0003600900136FF0FFAD7860E002414
:10235000E16E000E0120E26EE66A032ACFD712007A
:10236000475211E0495201E03BDC1A0E0B6E5E0E43
:102370000C6E6E0E0D6E0D2EFED70C2EFCD70B2E96
:10238000FAD70000FF0012000001D151000A02E15B
:1023900034C0D1F0D1C000F0D107005223E0CDC04D
:1023A00002F1CEC003F1CFC004F1D0C005F19EEC24
:1023B0000CF000C0D2F00050000A02E1006A14D014
:1023C0000001D1530EE0030E0B6E8A0E0C6E550EFB
:1023D0000D6E0D2EFED70C2EFCD70B2EFAD700005B
:1023E0000000D8D7D2C000F012000001D56B180E43
:1023F0000101026F70EC0CF000C0D0F001C0D1F010
:1024000002C0D2F003C0D3F0366A376A386A396A3C
:1024100000BA36800001D0AD01D03682D0AF01D0F5
:102420003684D0A701D03686D0A501D03688D0A377
:1024300001D0368AD0A101D0368CD1A901D0368EF8
:10244000D1AB01D03780D1AD01D03782D1AF01D02F
:102450003784D1A101D03786D1A301D03788D1A547
:1024600001D0378AD1A701D0378CD2A901D0378EBD
:10247000D2AB01D03880D2AD01D03882D2AF01D0FA
:102480003884D2A701D03886D2A501D03888D2A30B
:1024900001D0388AD2A101D0388CD0A901D0388E91
:1024A000D46B2F50D45D45E2030E026ED4C000F011
:1024B000000E016E025005E0003600900136FF0F5D
:1024C000FAD7860E0026000E0122020E0024056EA9
:1024D000000E0120066ED4C004F0000E006E000E47
:1024E000016E400E026E000E036E045009E00332CE
:1024F000023201320032039E03BC038EFF0FF6D777
:10250000365000163750011638500216395003164F
:10251000005001100210031002E0CF6B02D0010E38
:10252000CF6F05C0E1FF06C0E2FFCFC0E6FFD42BAE
:10253000B8D72FC000F0000E016E026E036E003699
:10254000009001360236033600360090013602361E
:102550000336870E0024F66E370E0120F76E000E4C
:102560000220F86E0900F5CF00F00900F5CF01F068
:102570000900F5CF02F00900F5CF03F00050361442
:10258000046E01503714056E02503814066E035065
:102590003914076E04C036F005C037F006C038F0B5
:1025A00007C039F007503D1808E106503C1805E116
:1025B00005503B1802E104503A1816E0CDC0E1FF87
:1025C000CEC0E2FF36C0E6FF37C0E6FF38C0E6FF08
:1025D00039C0E6FF36C03AF037C03BF038C03CF0B7
:1025E00039C03DF0010ED56F020E0B6E450E0C6E1C
:1025F000A90E0D6E0D2EFED70C2EFCD70B2EFAD782
:1026000000000000D5C000F012000001CD6B080EE4
:10261000CD5DD8B070D0030E026ECDC000F0000EBC
:10262000016E025005E0003600900136FF0FFAD728
:10263000860E0024E96E000E0120EA6EEECF01F056
:102640000150010A1BE1030E026ECDC000F0000E26
:10265000016E025005E0003600900136FF0FFAD7F8
:10266000860E0026000E0122010E0024E96E000EE7
:102670000120EA6EEE50000A01E001D039D0030ECD
:10268000026ECDC000F0000E016E025005E0003673
:1026900000900136FF0FFAD7860E0026000E0122A9
:1026A000050E0024E96E000E0120EA6EEE5220E0D5
:1026B000030E026ECDC000F0000E016E025005E068
:1026C000003600900136FF0FFAD7860E0026000E66
:1026D0000122020E0024E96E000E0120EA6EEE5285
:1026E00007E0CDC002F1010E0101036F3EEC0CF0DA
:1026F0000001CD2B8CD712000001CF6B000E80BAE9
:10270000010E436E446A456A466A070E006E000E6B
:10271000446E456E466E005005E0433643904436A5
:10272000FF0FFAD7036A84B0032A060E026E03C0B5
:1027300000F0000E016E025005E0003600900136F8
:10274000FF0FFAD7000E456E466E0050431201503F
:102750004412000E456E466E036A84B2032A050ECB
:10276000026E03C000F0000E016E025005E000365C
:1027700000900136FF0FFAD7000E456E466E0050EE
:10278000431201504412000E456E466E036A84B433
:10279000032A040E026E03C000F0000E016E025008
:1027A00005E0003600900136FF0FFAD7000E456EA7
:1027B000466E0050431201504412000E456E466EA4
:1027C000036A82B0032A030E026E03C000F0000EFB
:1027D000016E025005E0003600900136FF0FFAD777
:1027E000000E456E466E0050431201504412000E1A
:1027F000456E466E036A82B2032A03C000F0000EE3
:10280000016E003600900136003600900136000E51
:10281000456E466E0050431201504412000E456E44
:10282000466E036A82B4032A03C000F0000E016EF4
:10283000003600900136000E456E466E0050431281
:1028400001504412000E456E466E006A83B0002AA5
:10285000000E016E000E456E466E00504312015090
:102860004412000E456E466E000E456E466E465092
:10287000411808E14550401805E144503F1802E175
:1028800043503E1828E0E7EC0CF000C004F0000EC6
:10289000056E04C003F0026AFF0E4314006E000EC2
:1028A000016E0250001203500112CDC0E1FFCEC0F4
:1028B000E2FF00C0E6FF01C0E6FF000EE66EE66E36
:1028C00043C03EF044C03FF045C040F046C041F038
:1028D000010E0001CF6FCFC000F01200D40E010135
:1028E0001C6F000E1D6F1E6B050E1F6F000E206FFC
:1028F000F3EC09F0FF0E0001CF6FCDC0D0F0CEC0D9
:10290000D1F0D26BD36BCF0E0101116F000E126F9D
:10291000D40E136F000E146FF3EC0AF0005203E1B3
:10292000010E006E0ED0CF0E116F000E126FD40E7E
:10293000136F000E146F050E156F000E166FACECC2
:102940000AF0120083A407D0495204E165EC0CF0B0
:10295000010E496E05D0495203E0F0EC0DF0496AD2
:102960004952D8B4C7EF1AF063EC0CF00052D8B457
:10297000C7EF1AF0000E0001F36F050EF46FF3C0FD
:1029800000F1F4C001F166EF1AF0400ECD6F050EB4
:10299000CE6FCDC0E1FFCEC0E2FF010EE66E020EAB
:1029A000CD25E16E000ECE21E26E48C0E6FF010E9D
:1029B000CD25E16E000ECE21E26EE66AC5EF1AF07B
:1029C000000ECF6F050ED06F400ED16F050ED26F87
:1029D000D1C0E1FFD2C0E2FF020EE66E020ECF25AB
:1029E000E96E000ED021EA6E010EEE5C35E3020EB8
:1029F000CF25E96E000ED021EA6EEE50FD082CE3E3
:102A00000101026B020E0001CF25E96E000ED021FC
:102A1000EA6EEECF03F180EC0DF0005213E0020EEF
:102A20000001CF25E96E000ED021EA6EEECF48F00E
:102A3000010ED125E16E000ED221E26EE66A010E92
:102A4000476E09D00001010ED125E16E000ED221A2
:102A5000E26E060EE66E08D0010ED125E16E000E84
:102A6000D221E26E040EE66EC5EF1AF0400ED36F6F
:102A7000050ED46FD3C0E1FFD4C0E2FF030EE66EB3
:102A8000020ED325E16E000ED421E26E2F501708FE
:102A9000006E00C0E6FF030ED325E16E000ED421C8
:102AA000E26E30C0E6FF31C0E6FF32C0E6FF33C061
:102AB000E6FF010ED325E16E000ED421E26EE66A38
:102AC000C5EF1AF0400ED56F050ED66FD5C0E1FFE9
:102AD000D6C0E2FF040EE66E020ED525E16E000EB2
:102AE000D621E26EFF0E2A14006E00C0E6FF030E30
:102AF000D525FE6F000ED621FF6F2FC002F1E0EC4E
:102B00000EF0FEC0E1FFFFC0E2FF00C0E6FF010ED5
:102B10000001D525E16E000ED621E26EE66AC5EF12
:102B20001AF0000ED76F050ED86F400ED96F050E44
:102B3000DA6FD9C0E1FFDAC0E2FF050EE66E020EE1
:102B4000D725E96E000ED821EA6E000EEE5CD8A003
:102B5000B5D0020ED725E96E000ED821EA6E080E18
:102B6000EE5CD8B0ABD0020ED925E16E000EDA21B2
:102B7000E26E020ED725E96E000ED821EA6EEECF86
:102B8000E6FF030ED925046E000EDA21056E020E53
:102B9000D725D96E000ED821DA6EDECF00F000C046
:102BA00002F0010E006E000E016E025005E00036CC
:102BB00000900136FF0FFAD7000E01BEFF0E026E25
:102BC000036E2A5000162B5001162C5002162D5061
:102BD0000316005001100210031003E0010EF56F00
:102BE00001D0F56B04C0E1FF05C0E2FFF5C0E6FFD0
:102BF000040ED925E16E000EDA21E26E020ED72511
:102C0000E96E000ED821EA6EEECF03F0030E026EDD
:102C100003C000F0000E016E025005E00036009087
:102C20000136FF0FFAD7860E0026000E0122010E94
:102C30000024E96E000E0120EA6EEECFE6FF050EDD
:102C4000D925FE6F000EDA21FF6F020ED725E96E3F
:102C5000000ED821EA6EEECF03F0030E026E03C021
:102C600000F0000E016E025005E0003600900136C3
:102C7000FF0FFAD7860E0026000E0122030E002455
:102C8000E96E000E0120EA6EEECF00F0EECF01F00B
:102C90000A0E046E000E056E93EC0DF0FEC0E1FF0F
:102CA000FFC0E2FF00C0E6FF01C0E6FF010ED9252C
:102CB000E16E000EDA21E26EE66A08D0010ED92537
:102CC000E16E000EDA21E26E040EE66EC5EF1AF038
:102CD000000EDC6F050EDD6F400EDE6F050EDF6F40
:102CE000DEC0E1FFDFC0E2FF060EE66E020EDC256D
:102CF000E96E000EDD21EA6E000EEE5CD8A03DD13B
:102D0000020EDC25E96E000EDD21EA6E080EEE5C97
:102D1000D8B033D1010EDB6F040EDC25E96E000E56
:102D2000DD21EA6EEE5229E0F66B020EDC25D96E4B
:102D3000000EDD21DA6EDE50F65D1EE2030E026E3D
:102D4000F6C000F0000E016E025005E00036009063
:102D50000136FF0FFAD7860E0026000E0122010E63
:102D60000024E96E000E0120EA6EEECF00F0005262
:102D7000D8B4DB6BF62BD9D727D0070EF66F020E2F
:102D8000DC25D96E000EDD21DA6EF651DE5C1CE228
:102D9000030E026EF6C000F0000E016E025005E058
:102DA000003600900136FF0FFAD7860E0026000E7F
:102DB0000122010E0024E96E000E0120EA6EEE529F
:102DC000D8A4DB6BF607DBD7DB53D8B4CDD0020E2B
:102DD000DC25E96E000EDD21EA6EEECF02F1010185
:102DE000036B3EEC0CF0020E0001DC25E96E000ED8
:102DF000DD21EA6EEECF00F0030E0002F3CF00F00B
:102E00000050010F0101026F040E0001DC25E96E84
:102E1000000EDD21EA6EEECF03F180EC0DF00052E2
:102E2000D8B498D0020E0001DC25E96E000EDD2139
:102E3000EA6EEECF00F0030E0002F3CF00F0005078
:102E4000020F0101026F050E0001DC25E96E000E84
:102E5000DD21EA6EEECF00F0EECF01F00A0E046E37
:102E6000000E056E67EC00F000C003F101C004F134
:102E70009EEC0EF000526EE0020E0001DC25E96EC1
:102E8000000EDD21EA6EEECF03F0030E026E03C0EA
:102E900000F0000E016E025005E000360090013691
:102EA000FF0FFAD70001860E0026000E0122010E48
:102EB0000024E16E000E0120E26E040EDC25E96EB6
:102EC000000EDD21EA6EEECFE6FF020EDC25E96E94
:102ED000000EDD21EA6EEECF03F0030E026E03C09A
:102EE00000F0000E016E025005E000360090013641
:102EF000FF0FFAD70001860E0026000E0122030EF6
:102F00000024FE6F000E0120FF6F050EDC25E96E28
:102F1000000EDD21EA6EEECF00F0EECF01F00A0EDA
:102F2000046E000E056E67EC00F0FEC0E1FFFFC00E
:102F3000E2FF00C0E6FF01C0E6FF79EC0EF000C042
:102F40002FF0010E0001DE25E16E000EDF21E26EA2
:102F5000E66A09D00001010EDE25E16E000EDF21D8
:102F6000E26E060EE66E08D0010EDE25E16E000E62
:102F7000DF21E26E050EE66E08D0010EDE25E16E61
:102F8000000EDF21E26E040EE66EFFD2000EE06F4F
:102F9000050EE16F400EE26F050EE36FE2C0E1FF48
:102FA000E3C0E2FF070EE66E020EE025E96E000EBA
:102FB000E121EA6E000EEE5C48E3020EE025E96EC8
:102FC000000EE121EA6E080EEE5C3FE2030EE22500
:102FD000046E000EE321056E020EE025D96E000E90
:102FE000E121DA6EDECF00F000C002F0010E006ECB
:102FF000000E016E025005E0003600900136FF0F12
:10300000FAD7000E01BEFF0E026E036E2A500016A4
:103010002B5001162C5002162D5003160050011093
:103020000210031003E0010EF76F01D0F76B04C02C
:10303000E1FF05C0E2FFF7C0E6FF010EE225E16E09
:10304000000EE321E26EE66A08D0010EE225E16E91
:10305000000EE321E26E040EE66E97D2000EE46FDE
:10306000050EE56F400EE66F050EE76FE6C0E1FF67
:10307000E7C0E2FF080EE66E020EE425E96E000EE0
:10308000E521EA6E000EEE5C32E3020EE425E96E05
:10309000000EE521EA6E080EEE5C29E2030EE4253F
:1030A000E96E000EE521EA6EEE520BE0020EE42519
:1030B000E96E000EE521EA6EEECF02F130EC0DF084
:1030C0000DD0020E0001E425E96E000EE521EA6E46
:1030D000EECF02F10101036B3EEC0CF0010E00019A
:1030E000E625E16E000EE721E26EE66A08D0010EE9
:1030F000E625E16E000EE721E26E040EE66E45D293
:10310000400EE86F050EE96FE8C0E1FFE9C0E2FF9D
:10311000090EE66E020EE825E16E000EE921E26E70
:103120002EC0E6FF010EE825E16E000EE921E26EF9
:10313000E66A2BD2000EEB6F050EEC6F400EED6FC2
:10314000050EEE6FEDC0E1FFEEC0E2FF0A0EE66E87
:10315000020EEB25E96E000EEC21EA6EEE50450AF8
:103160003FE1020EEB25006E000EEC21016E010E18
:103170000024E96E000E0120EA6EEE50430A30E1B1
:10318000020EEB25006E000EEC21016E020E0024F3
:10319000E96E000E0120EA6EEE504F0A21E1020EA8
:1031A000EB25006E000EEC21016E030E0024E96E8B
:1031B000000E0120EA6EEE504E0A12E1020EEB25DF
:1031C000006E000EEC21016E040E0024E96E000E6C
:1031D0000120EA6EEE50460A03E1010E006E01D0B6
:1031E000006A005209E1010EED25E16E000EEE21AC
:1031F000E26E080EE66E82D0020EEB250101026F30
:10320000000E0001EC210101036F1E0E046F000E81
:10321000056FAEEC0DF0200E0001EB25D96E000E0F
:10322000EC21DA6EDECF02F0DECF03F0000E0318E1
:1032300002E1025000185AE1010EEA6F0101026B2F
:10324000070E0001EB25E96E000EEC21EA6EEECFD1
:1032500003F180EC0DF000C0EAF0080E0001EB2550
:10326000F96F000EEC21FA6FF86B180EF85D29E289
:10327000F851010F0101026FF9C0E9FFFAC0EAFF3E
:10328000EECF03F180EC0DF000500001EA17F94B8E
:10329000FA2BF851020F0101026FF9C0E9FFFAC0E1
:1032A000EAFFEECF03F1EECF04F19EEC0EF00050FA
:1032B0000001EA17020EF927000EFA23030EF82781
:1032C000D4D7EA530AE0010EED25E16E000EEE219F
:1032D000E26EE66A010E476E08D0010EED25E16E42
:1032E000000EEE21E26E060EE66E08D0010EED2510
:1032F000E16E000EEE21E26E090EE66E46D1400E42
:10330000EF6F050EF06FEFC0E1FFF0C0E2FF0B0EB4
:10331000E66E020EEF25E16E000EF021E26E450E24
:10332000E66E020EEF25006E000EF021016E010E1A
:103330000024E16E000E0120E26E430EE66E020EE6
:10334000EF25006E000EF021016E020E0024E16EEA
:10335000000E0120E26E4F0EE66E020EEF25006EAB
:10336000000EF021016E030E0024E16E000E01201C
:10337000E26E4E0EE66E020EEF25006E000EF0219C
:10338000016E040E0024E16E000E0120E26E460E76
:10339000E66E070EEF25E16E000EF021E26E48C0EA
:1033A000E6FF080EEF25FC6F000EF021FD6FFB6BB2
:1033B000080EFB5D46E2030E026EFBC000F0000E3D
:1033C000016E025005E0003600900136FF0FFAD77B
:1033D000860E0026000E0122010E0024E96E000E6A
:1033E0000120EA6EFCC0E1FFFDC0E2FFEECFE6FF88
:1033F000FC4BFD2B030E026EFBC000F0000E016EB5
:10340000025005E0003600900136FF0FFAD7860E15
:103410000026000E0122030E0026000E0122FCC031
:10342000E1FFFDC0E2FF00C0E9FF01C0EAFFEECF0F
:10343000E6FFEECFE6FF020EFC27000EFD23FB2B7E
:10344000B7D7200EEF25FE6F000EF021FF6F020EA2
:10345000EF250101026F000E0001F0210101036F51
:103460001E0E046F000E056FAEEC0DF0FEC0E1FF06
:10347000FFC0E2FF00C0E6FF000EE66E010E000195
:10348000EF25E16E000EF021E26EE66A7ED0400E7E
:10349000F16F050EF26F400E01011C6F050E1D6FDE
:1034A0001E6B400E1F6F000E206FF3EC09F0F1C091
:1034B000E1FFF2C0E2FFE66A010E0001F125E16ED4
:1034C000000EF221E26E010EE66E5FD000C1E9FF50
:1034D00001C1EAFFEE50010AD8B4C5EF14F000C1F3
:1034E000E9FF01C1EAFFEE50020AD8B4E0EF14F0A0
:1034F00000C1E9FF01C1EAFFEE50030AD8B436EF7C
:1035000015F000C1E9FF01C1EAFFEE50040AD8B48A
:1035100062EF15F000C1E9FF01C1EAFFEE50050AB4
:10352000D8B491EF15F000C1E9FF01C1EAFFEE50F8
:10353000060AD8B468EF16F000C1E9FF01C1EAFF3E
:10354000EE50070AD8B422D500C1E9FF01C1EAFF55
:10355000EE50080AD8B482D500C1E9FF01C1EAFFE4
:10356000EE50090AD8B4CCD500C1E9FF01C1EAFF89
:10357000EE500A0AD8B4DED500C1E9FF01C1EAFF66
:10358000EE500B0AD8B4BBD682D716EC0DF0120061
:10359000070E0C6E7D0E0D6E0D2EFED70C2EFCD779
:1035A000CD0E01011C6F000E1D6F1E6B050E1F6FEF
:1035B000000E206FF3EC09F0CD0E026F000E036FCA
:1035C000F2EC0DF0005226E0010E2E6E18D083783A
:1035D000010E426E1ED00001CF5306E0D00501015E
:1035E000026F30EC0DF007D00001D0050101026F31
:1035F000036B3EEC0CF00DD01FEC0DF00AD0000177
:10360000CE51100AE4E0CE51050AE5E0CE510E0A93
:10361000F3E001D001D0BCD7030E0B6E8A0E0C6E06
:10362000550E0D6E0D2EFED70C2EFCD70B2EFAD795
:1036300000000000120004EC1CF01A0E0B6E5E0E6F
:103640000C6E6E0E0D6E0D2EFED70C2EFCD70B2EB3
:10365000FAD70000A4EC0FF05CEC11F0B3EC0FF023
:1036600087EC0FF014EC0FF074EC11F0050E000174
:10367000CD6FAEEC0FF048C0CDF0140ECE6F6EECF7
:1036800014F0F28EF28C84DF2A0E0001CD6F000E52
:10369000CE6F7CEC13F0005203E1425201E110D0F6
:1036A000FE0ECD6F0C0ECE6F2A0ECF6F000ED06FB8
:1036B000D16BC4EC11F00050000A02E17DEC11F076
:1036C000300E0001CD6F000ECE6FF5EC11F0005200
:1036D00003E1425201E10BD0FE0ECD6F0A0ECE6F18
:1036E000300ECF6F000ED06FD16BC4EC11F005EC33
:1036F00013F0A2EC14F0426AB0EC11F0C4D7FFD77B
:10370000360353006D006100720074002000480011
:103710006F007500730065002000450078006500AB
:103720006300750074006900760065002000550094
:103730006E006900740009022900010100C032090D
:103740000400000203000000092101010001222100
:103750000007058103400001070501034000014007
:103760000500054005400540050005400501000530
:1037700040050005400500054005400501000540E5
:1037800005400540050005FFFFFF00FFFFBF00FFEC
:10379000FF9F00FFFF8F00FFFF8700FFFF8300FFF9
:1037A000FF8100FFFF8000FF7F80000600FF09010E
:1037B000A10119012940150026FF007508954081D7
:1037C0000219012940750895409102C000000000CF
:1037D00000000000000001000000000000000000E8
:1037E00000000000000000000000010012010002C3
:1037F0000000000809120100010001020001060397
:1038000047004C000403090410EE2AF0200E006E5D
:10381000010E016ECC0EF66E370EF76E000EF86ECE
:1038200054EC11F01200FFFFFFFFFFFFFFFFFFFF4F
:020000040030CA
:0E000000240C3F1EFF8381FF0FC00FE00F4056
:00000001FF
