:100000009D2BFF3FFF3FFF3FFF00030E8301C30017
:100010000A08C2008A017008A0000408A1000B1D94
:1000200014280B11AA112A108B1C4C288B10AA190A
:100030004C282A1821282A14A701A801A601810109
:100040004C280108A2002208143C03182E281E3058
:10005000220203182E28A70D271027142208083C77
:10006000031839281030220203183928A70D271049
:100070000000A80A2808083A031D4B2826083A3E23
:10008000840027088000A701A801A60A2608083ACC
:10009000031D4B28AA1581012008F00021088400C7
:1000A00042088A00430E8300FF0E7F0E0900831270
:1000B00003134F08F3004E08F2005008F0005108F7
:1000C000F1000130D002031CD10370087104031940
:1000D0007428730884000008F00072088400700817
:1000E0008000F20AF30A5D284E08F000080083122F
:1000F0000313FB01FA01F9018030F800F10CF00C58
:10010000031C8B287408F90775080318750FFA0784
:100110000318FB0A0310F01F93287408FA077508E8
:100120000318750FFB07FB0CFA0CF90CF80C031CF9
:100130007E287B08F3007A08F2007908F10078083D
:10014000F0000800831203137008F100F00108307A
:10015000FC007108F40C0318B128FC0BAA28F1016B
:1001600000340310B628F40C0318F107F10CF00C5E
:10017000FC0BB3280800FF3083120313CF000730B5
:10018000D0005008F000D00370080319E9284E0889
:1001900084000008CF06CE0AF3010830730203186A
:1001A000E828CF1FDE284F08F100F201F10DF20D13
:1001B00071103130F1060030F200E4284F08F100F0
:1001C000F201F10DF20D71107108CF00F30ACD2884
:1001D000C1284F08F0000800831203134F08F000F5
:1001E000CF037008031918294E0884000008F10095
:1001F000CE0AF201083072020318172906111030D6
:10020000FD00FD0B012900000615F11F0E293130FC
:10021000FD00FD0B09290000000013291030FD002E
:10022000FD0B10290000F10D7110F20AFA28EC28DC
:1002300006111030FD00FD0B1B29000006150800FB
:10024000831203132C088A002B08820008008312F3
:10025000031325080F3A031D2E2968290530F000E5
:100260002508F400A2207008A03E84003A0880000F
:100270000530F0002508F400A220A030F007700A35
:1002800084003D0880000530F0002508F400A2201D
:10029000A030F0070230700784003E08800005306F
:1002A000F0002508F400A220A030F007033070070A
:1002B00084003F0880000530F0002508F400A220EB
:1002C000A030F00704307007840040088000A50AC1
:1002D0000800043083120313FC003D30FD00FD0BC9
:1002E0006F29FC0B6F29000000002408B2004A08A7
:1002F00084000008B30002304A0784008030000404
:10030000B400B501B601B701B8013230CE00BB2050
:100310007008B900861406113230CE000830CF00C4
:10032000EC20861006110800831203134A08F2001D
:100330004C08F0004D08F1000130CC02031CCD0345
:10034000700871040319AA29720884004B08800000
:10035000F20A98294A08F0000800831203132508BE
:10036000003A031DB429ED294A08CE00A030CF0081
:100370000530D0000030D1005720CB0101302502DC
:10038000F100F201031CF2038030F00080307206AD
:100390007002031DCD2971084B020318EC290530AA
:1003A000F0004B08F400A2207008A03ECE004B08DD
:1003B000013EF000F1010318F10A0530F4000030AD
:1003C000F50077207008A03ECF000530D000003047
:1003D000D1005720CB0ABE29A503080002308312A2
:1003E0000313CC002308CB00A90A29087F3C03187B
:1003F000FA29A9012408B2004A0884000008B300C1
:100400002908B4004A0A84000008B50002304A07EF
:1004100084000008B60003304A0784000008B700D3
:1004200004304A0784000008B8003230CE00BB20F8
:100430007008B900AA112A10861406113230CE00B5
:100440000830CF00EC20861006118B1281018B172B
:100450004B08F100CB038030003AF0008030710689
:10046000700203185E2AAA1D552A8B133A30CE005B
:10047000BB2070084106031D522ABC1F522A4A089D
:1004800084003A080006031D522A3B082406031D77
:10049000522A7F303C05F10071082906031D522ABB
:1004A000CC015E2A2A10AA118B170730FC007D3080
:1004B000FD00FD0B592AFC0B592A282A8B138B1699
:1004C0002A10AA114C08F00008000430831203130C
:1004D000C800C9012D30CA00CB010530CC00003066
:1004E000CD0094212A11AA1086138B132A1C7A2A74
:1004F0008B17172B8619B32A061EB32AAA14831644
:10050000061783128617861EAF2A2A19AF2A2A15C4
:1005100048082D3EF300730884000008F2007208BA
:10052000F000F00D70107308840070088000061F42
:10053000A52A48082D3EF10071088400013000040E
:10054000F0007108840070088000C90A0830490270
:10055000031CAF2A48080319AE2AC803C901861A2A
:10056000B22A2A117A2A2A11AA1CDC2A2D08FF3A5B
:10057000031DCD2A2E08A4002F08A3000230FB0083
:100580004530FC00A930FD00FD0BC42AFC0BC42A39
:10059000FB0BC42A00000000DC2A2D30CA00EE212B
:1005A0007008023A031DDC2A2D30CA00CB01053049
:1005B000CC000030CD0094210430C800C901061AD7
:1005C000132B861D132B8316061383128613861E88
:1005D0000F2B2A190F2B2A1548082D3E84000008DE
:1005E000F100F11FF52A0617F62A061348082D3EDA
:1005F000F300730884000008F2007208F000F00DA8
:1006000070107308840070088000C90A083049021D
:10061000031C0F2B480803190E2BC803C901861AA7
:10062000122B2A11DF2A8613831606178B17080050
:10063000043083120313C800C9012D30CA00CB0156
:100640000530CC000030CD0094212A112A128613E7
:100650008B132A18302B2508003A0319302B322B24
:100660008B17762B061A722B8619722B2A1A462B99
:100670002A1625080319462B0430C800C9012D305D
:10068000CA00AD218316061383128617861E6E2BB1
:100690002A196E2B2A1548082D3E84000008F10007
:1006A000F11F542B0617552B061348082D3EF30057
:1006B000730884000008F2007208F000F00D70105A
:1006C0007308840070088000C90A08304902031CBE
:1006D0006E2B480803196D2BC803C901861A712BAC
:1006E0002A11322B8613831606178B170800202138
:1006F0008A110A128000840AAB0A0319AC0AF003BB
:10070000031D772B080083120313AA1D9C2B8B1348
:100710003A30CE00BB2070084106031D992B3B08E0
:100720002406031D992BBC1B992B3A30CA00692162
:1007300027212A10AA118B17080083120313A20184
:100740006430A300A401A501A601A701A801A90185
:10075000C401C501C601C70107309F00831685107B
:1007600083128510831686150616861606178613BD
:1007700083128613831606148610061183128610C0
:1007800006118316011781128111011181140110C4
:100790000B178B160B168312AA112A102A11AA10F6
:1007A0002A128B178323652218238312031344080C
:1007B000F4004508F5004608F6004708F70044082D
:1007C000F0004508F1004608F2004708F300F00A7F
:1007D0000319F10A0319F20A0319F30A7008C40095
:1007E0007108C5007208C6007308C7007708003C8E
:1007F000031D042C7608003C031D042C7508273CBF
:10080000031D042C7408103C03180C2CC401C501F2
:10081000C601C70102308506D22B0D2CFF3FFF3FDA
:02400E006A2125
:00000001FF
